:0600000002003002014283
:100030007581FAC288C28AD2A8D2AAD2AF7530C05E
:0F0040007531F97532A47533B0753499753592F1
:0F004F007536827537F8753880753990753A882F
:0F005E00753B83753CC6753DA17540C07541CF9C
:0F006D0075429275438675448D7545A47546A0FE
:0F007C007547CE754880754984754A88754B83E2
:0F008B00754CC6754DA1C2D57560007C05DCFEB5
:0E009A007590EFE59030E03F30E14B30E257DB
:0E00A8007590DFE59030E03630E14230E24EF8
:0E00B60030E3237590BFE59030E02A30E1364C
:0E00C40030E24275907FE59030E03F30E14140
:0F00D20030E24330E3457C0580BC7A0002012216
:0F00E1007A010201227A020201227A030201222D
:0F00F0007A040201227A050201227A0602012215
:0F00FF007A070201227A080201227A09020122FD
:0F010E007A0A0201227A0B0201227A0C020122E4
:10011D007A0D0201227C0530D50D856080EA2430F0
:0F012D00F886A0C2D50198EACBEA2430F886A064
:0F013C008660D2D50198C0D0C0E07F0500DFFDFE
:0F014B0020B20CEA2440F88680EB2440F987A00C
:07015A00D0E0D0D0C28932D1
:00000001FF
