:03000000020030CB
:03000B0002017877
:030013000201598E
:03001B000201914E
:0F0030007581FAC288C28AD2A8D2AAD2A9D2AB4D
:0F003F00D2AF758966D28CD28E758AFF758CFF11
:0F004E00758BFF758DFF7530C07531F97532A454
:0F005D007533B07534997535927536827537F8ED
:0F006C00753880753990753A88753B83753CC639
:0F007B00753DA17540C07541CF754292754386A2
:0F008A0075448D7545A47546827547CE754880BF
:0F009900754984754A88754BA1754CF0754D8378
:0E00A800C2D57560007C0FDCFE7590EFE59010
:0E00B60030E03F30E14B30E2577590DFE590CF
:0F00C40030E03630E14230E24E30E3237590BF3A
:1000D300E59030E02A30E13630E24275907FE590DA
:1000E30030E03F30E14130E24330E3457C0F80BCF8
:0F00F3007A000201397A010201397A02020139D9
:0F0102007A030201397A040201397A05020139C0
:0F0111007A060201397A070201397A08020139A8
:0F0120007A090201397A0A0201397A0B02013990
:0F012F007A0C0201397A0D0201397C0F30D50D9F
:10013E00856080EA2430F886A0C2D501AFEAFBEADA
:0F014E002430F886A08660D2D501AFC0D0C0E0C3
:0F015D007F0A00DFFD20B30CEA2440F88680EB18
:10016C002440F987A0D0E0D0D0C28932C0D0C0E002
:10017C007F0A00DFFD20B408EA04FA2430F886A0D8
:0E018C00D0E0D0D032C0D0C0E07F0A00DFFD4E
:10019A0020B5EFEA14FA2430F886A0D0E0D0D032A5
:00000001FF
